{
  "contractName": "Buyer",
  "abi": [
    {
      "inputs": [],
      "stateMutability": "payable",
      "type": "constructor",
      "payable": true
    },
    {
      "inputs": [],
      "name": "buyer_address",
      "outputs": [
        {
          "internalType": "address",
          "name": "",
          "type": "address"
        }
      ],
      "stateMutability": "view",
      "type": "function",
      "constant": true
    },
    {
      "inputs": [
        {
          "internalType": "uint256",
          "name": "",
          "type": "uint256"
        }
      ],
      "name": "buyers",
      "outputs": [
        {
          "internalType": "uint256",
          "name": "id",
          "type": "uint256"
        },
        {
          "internalType": "string",
          "name": "name",
          "type": "string"
        },
        {
          "internalType": "string",
          "name": "email",
          "type": "string"
        },
        {
          "internalType": "string",
          "name": "delivery_addr",
          "type": "string"
        }
      ],
      "stateMutability": "view",
      "type": "function",
      "constant": true
    },
    {
      "inputs": [
        {
          "internalType": "uint256",
          "name": "",
          "type": "uint256"
        }
      ],
      "name": "products",
      "outputs": [
        {
          "internalType": "string",
          "name": "product_name",
          "type": "string"
        },
        {
          "internalType": "uint256",
          "name": "quantity",
          "type": "uint256"
        }
      ],
      "stateMutability": "view",
      "type": "function",
      "constant": true
    },
    {
      "inputs": [
        {
          "internalType": "string",
          "name": "_name",
          "type": "string"
        },
        {
          "internalType": "string",
          "name": "_email",
          "type": "string"
        },
        {
          "internalType": "string",
          "name": "_delivery_addr",
          "type": "string"
        }
      ],
      "name": "addBuyer",
      "outputs": [],
      "stateMutability": "nonpayable",
      "type": "function"
    },
    {
      "inputs": [
        {
          "internalType": "string",
          "name": "_name",
          "type": "string"
        },
        {
          "internalType": "uint256",
          "name": "_quantity",
          "type": "uint256"
        }
      ],
      "name": "addProduct",
      "outputs": [],
      "stateMutability": "nonpayable",
      "type": "function"
    },
    {
      "inputs": [
        {
          "internalType": "address payable",
          "name": "to",
          "type": "address"
        },
        {
          "internalType": "uint256",
          "name": "amount",
          "type": "uint256"
        }
      ],
      "name": "send",
      "outputs": [],
      "stateMutability": "payable",
      "type": "function",
      "payable": true
    }
  ],
  "bytecode": "0x608060405260006001556000600355336000806101000a81548173ffffffffffffffffffffffffffffffffffffffff021916908373ffffffffffffffffffffffffffffffffffffffff160217905550610c408061005d6000396000f3fe6080604052600436106100555760003560e01c80636985b4431461005a5780637acc0b2014610085578063b15247d9146100c3578063bf75604a146100ec578063d0679d3414610115578063f2aa821814610131575b600080fd5b34801561006657600080fd5b5061006f610171565b60405161007c91906106b9565b60405180910390f35b34801561009157600080fd5b506100ac60048036038101906100a7919061071e565b610195565b6040516100ba9291906107f3565b60405180910390f35b3480156100cf57600080fd5b506100ea60048036038101906100e59190610958565b610241565b005b3480156100f857600080fd5b50610113600480360381019061010e91906109b4565b6102b1565b005b61012f600480360381019061012a9190610a99565b61036a565b005b34801561013d57600080fd5b506101586004803603810190610153919061071e565b61040d565b6040516101689493929190610ad9565b60405180910390f35b60008054906101000a900473ffffffffffffffffffffffffffffffffffffffff1681565b60046020528060005260406000206000915090508060000180546101b890610b62565b80601f01602080910402602001604051908101604052809291908181526020018280546101e490610b62565b80156102315780601f1061020657610100808354040283529160200191610231565b820191906000526020600020905b81548152906001019060200180831161021457829003601f168201915b5050505050908060010154905082565b6003600081548092919061025490610bc2565b9190505550604051806040016040528083815260200182815250600460006003548152602001908152602001600020600082015181600001908051906020019061029f9291906105d5565b50602082015181600101559050505050565b600160008154809291906102c490610bc2565b919050555060405180608001604052806001548152602001848152602001838152602001828152506002600060015481526020019081526020016000206000820151816000015560208201518160010190805190602001906103279291906105d5565b5060408201518160020190805190602001906103449291906105d5565b5060608201518160030190805190602001906103619291906105d5565b50905050505050565b60008054906101000a900473ffffffffffffffffffffffffffffffffffffffff1673ffffffffffffffffffffffffffffffffffffffff163373ffffffffffffffffffffffffffffffffffffffff16146103c257600080fd5b8173ffffffffffffffffffffffffffffffffffffffff166108fc829081150290604051600060405180830381858888f19350505050158015610408573d6000803e3d6000fd5b505050565b600260205280600052604060002060009150905080600001549080600101805461043690610b62565b80601f016020809104026020016040519081016040528092919081815260200182805461046290610b62565b80156104af5780601f10610484576101008083540402835291602001916104af565b820191906000526020600020905b81548152906001019060200180831161049257829003601f168201915b5050505050908060020180546104c490610b62565b80601f01602080910402602001604051908101604052809291908181526020018280546104f090610b62565b801561053d5780601f106105125761010080835404028352916020019161053d565b820191906000526020600020905b81548152906001019060200180831161052057829003601f168201915b50505050509080600301805461055290610b62565b80601f016020809104026020016040519081016040528092919081815260200182805461057e90610b62565b80156105cb5780601f106105a0576101008083540402835291602001916105cb565b820191906000526020600020905b8154815290600101906020018083116105ae57829003601f168201915b5050505050905084565b8280546105e190610b62565b90600052602060002090601f016020900481019282610603576000855561064a565b82601f1061061c57805160ff191683800117855561064a565b8280016001018555821561064a579182015b8281111561064957825182559160200191906001019061062e565b5b509050610657919061065b565b5090565b5b8082111561067457600081600090555060010161065c565b5090565b600073ffffffffffffffffffffffffffffffffffffffff82169050919050565b60006106a382610678565b9050919050565b6106b381610698565b82525050565b60006020820190506106ce60008301846106aa565b92915050565b6000604051905090565b600080fd5b600080fd5b6000819050919050565b6106fb816106e8565b811461070657600080fd5b50565b600081359050610718816106f2565b92915050565b600060208284031215610734576107336106de565b5b600061074284828501610709565b91505092915050565b600081519050919050565b600082825260208201905092915050565b60005b8381101561078557808201518184015260208101905061076a565b83811115610794576000848401525b50505050565b6000601f19601f8301169050919050565b60006107b68261074b565b6107c08185610756565b93506107d0818560208601610767565b6107d98161079a565b840191505092915050565b6107ed816106e8565b82525050565b6000604082019050818103600083015261080d81856107ab565b905061081c60208301846107e4565b9392505050565b600080fd5b600080fd5b7f4e487b7100000000000000000000000000000000000000000000000000000000600052604160045260246000fd5b6108658261079a565b810181811067ffffffffffffffff821117156108845761088361082d565b5b80604052505050565b60006108976106d4565b90506108a3828261085c565b919050565b600067ffffffffffffffff8211156108c3576108c261082d565b5b6108cc8261079a565b9050602081019050919050565b82818337600083830152505050565b60006108fb6108f6846108a8565b61088d565b90508281526020810184848401111561091757610916610828565b5b6109228482856108d9565b509392505050565b600082601f83011261093f5761093e610823565b5b813561094f8482602086016108e8565b91505092915050565b6000806040838503121561096f5761096e6106de565b5b600083013567ffffffffffffffff81111561098d5761098c6106e3565b5b6109998582860161092a565b92505060206109aa85828601610709565b9150509250929050565b6000806000606084860312156109cd576109cc6106de565b5b600084013567ffffffffffffffff8111156109eb576109ea6106e3565b5b6109f78682870161092a565b935050602084013567ffffffffffffffff811115610a1857610a176106e3565b5b610a248682870161092a565b925050604084013567ffffffffffffffff811115610a4557610a446106e3565b5b610a518682870161092a565b9150509250925092565b6000610a6682610678565b9050919050565b610a7681610a5b565b8114610a8157600080fd5b50565b600081359050610a9381610a6d565b92915050565b60008060408385031215610ab057610aaf6106de565b5b6000610abe85828601610a84565b9250506020610acf85828601610709565b9150509250929050565b6000608082019050610aee60008301876107e4565b8181036020830152610b0081866107ab565b90508181036040830152610b1481856107ab565b90508181036060830152610b2881846107ab565b905095945050505050565b7f4e487b7100000000000000000000000000000000000000000000000000000000600052602260045260246000fd5b60006002820490506001821680610b7a57607f821691505b602082108103610b8d57610b8c610b33565b5b50919050565b7f4e487b7100000000000000000000000000000000000000000000000000000000600052601160045260246000fd5b6000610bcd826106e8565b91507fffffffffffffffffffffffffffffffffffffffffffffffffffffffffffffffff8203610bff57610bfe610b93565b5b60018201905091905056fea264697066735822122048d0255042873bd791f06fd27520e06e0ce177a4c804e1d7d4154ba47c22b37f64736f6c634300080d0033",
  "immutableReferences": {},
  "source": "// SPDX-License-Identifier: MIT\r\npragma solidity ^0.8.13;\r\n\r\ncontract Buyer\r\n{\r\n    address public buyer_address ;\r\n\r\n    constructor() payable\r\n    {\r\n        buyer_address=payable (msg.sender);\r\n    }\r\n\r\n    struct buyer\r\n    {\r\n        uint id;\r\n        string name;\r\n        string email;\r\n        string delivery_addr;\r\n    }\r\n    \r\n    uint buyer_count=0;\r\n    mapping (uint=> buyer)public buyers;\r\n\r\n    struct product_requested\r\n    {\r\n        string product_name;\r\n        uint quantity;\r\n    }\r\n\r\n    uint product_count=0;\r\n    mapping (uint=> product_requested)public products;\r\n    \r\n    function addBuyer(string memory _name,string memory _email,string memory _delivery_addr) public  {\r\n        buyer_count++;\r\n        buyers[buyer_count]=buyer(buyer_count,_name,_email,_delivery_addr);\r\n    }  \r\n\r\n     function addProduct(string memory _name,uint _quantity) public  {\r\n        product_count++;\r\n        products[product_count]=product_requested(_name,_quantity);\r\n\r\n    }  \r\n\r\n    modifier onlyBuyer {\r\n      require(msg.sender == buyer_address);\r\n      _;\r\n   }\r\n\r\n\r\n    function send(address payable to, uint amount) public payable onlyBuyer\r\n    {\r\n        to.transfer(amount );\r\n        return;\r\n\r\n    }\r\n     \r\n    \r\n\r\n\r\n}\r\n\r\n\r\n",
  "sourcePath": "C:\\Users\\krish\\OneDrive\\desktop\\shipment_tracking_project\\contracts\\Buyer.sol",
  "compiler": {
    "name": "solc",
    "version": "0.8.13+commit.abaa5c0e.Emscripten.clang"
  },
  "schemaVersion": "3.4.9",
  "updatedAt": "2022-10-23T01:55:08.949Z",
  "networkType": "ethereum",
  "devdoc": {
    "kind": "dev",
    "methods": {},
    "version": 1
  },
  "userdoc": {
    "kind": "user",
    "methods": {},
    "version": 1
  }
}