{
  "contractName": "Freight_Forwarder",
  "abi": [
    {
      "anonymous": false,
      "inputs": [
        {
          "indexed": false,
          "internalType": "string",
          "name": "location",
          "type": "string"
        },
        {
          "indexed": false,
          "internalType": "string",
          "name": "custodian",
          "type": "string"
        },
        {
          "indexed": false,
          "internalType": "uint256",
          "name": "time",
          "type": "uint256"
        },
        {
          "indexed": false,
          "internalType": "uint256",
          "name": "index",
          "type": "uint256"
        }
      ],
      "name": "Arrived",
      "type": "event"
    },
    {
      "anonymous": false,
      "inputs": [
        {
          "indexed": false,
          "internalType": "string",
          "name": "location",
          "type": "string"
        },
        {
          "indexed": false,
          "internalType": "string",
          "name": "custodian",
          "type": "string"
        },
        {
          "indexed": false,
          "internalType": "uint256",
          "name": "time",
          "type": "uint256"
        }
      ],
      "name": "Delivered",
      "type": "event"
    },
    {
      "anonymous": false,
      "inputs": [
        {
          "indexed": false,
          "internalType": "string",
          "name": "location",
          "type": "string"
        },
        {
          "indexed": false,
          "internalType": "string",
          "name": "custodian",
          "type": "string"
        },
        {
          "indexed": false,
          "internalType": "uint256",
          "name": "time",
          "type": "uint256"
        },
        {
          "indexed": false,
          "internalType": "uint256",
          "name": "index",
          "type": "uint256"
        }
      ],
      "name": "Departed",
      "type": "event"
    },
    {
      "inputs": [],
      "name": "deliveryTime",
      "outputs": [
        {
          "internalType": "uint256",
          "name": "",
          "type": "uint256"
        }
      ],
      "stateMutability": "view",
      "type": "function",
      "constant": true
    },
    {
      "inputs": [],
      "name": "departureTime",
      "outputs": [
        {
          "internalType": "uint256",
          "name": "",
          "type": "uint256"
        }
      ],
      "stateMutability": "view",
      "type": "function",
      "constant": true
    },
    {
      "inputs": [],
      "name": "destinationName",
      "outputs": [
        {
          "internalType": "string",
          "name": "",
          "type": "string"
        }
      ],
      "stateMutability": "view",
      "type": "function",
      "constant": true
    },
    {
      "inputs": [],
      "name": "from",
      "outputs": [
        {
          "internalType": "string",
          "name": "",
          "type": "string"
        }
      ],
      "stateMutability": "view",
      "type": "function",
      "constant": true
    },
    {
      "inputs": [],
      "name": "originName",
      "outputs": [
        {
          "internalType": "string",
          "name": "",
          "type": "string"
        }
      ],
      "stateMutability": "view",
      "type": "function",
      "constant": true
    },
    {
      "inputs": [],
      "name": "packageId",
      "outputs": [
        {
          "internalType": "uint256",
          "name": "",
          "type": "uint256"
        }
      ],
      "stateMutability": "view",
      "type": "function",
      "constant": true
    },
    {
      "inputs": [],
      "name": "to",
      "outputs": [
        {
          "internalType": "string",
          "name": "",
          "type": "string"
        }
      ],
      "stateMutability": "view",
      "type": "function",
      "constant": true
    },
    {
      "inputs": [
        {
          "internalType": "uint256",
          "name": "_packageId",
          "type": "uint256"
        },
        {
          "internalType": "string",
          "name": "_from",
          "type": "string"
        },
        {
          "internalType": "string",
          "name": "_to",
          "type": "string"
        },
        {
          "internalType": "string",
          "name": "_originName",
          "type": "string"
        },
        {
          "internalType": "string",
          "name": "_destinationName",
          "type": "string"
        },
        {
          "internalType": "string",
          "name": "_custodian",
          "type": "string"
        },
        {
          "internalType": "uint256",
          "name": "_departureTime",
          "type": "uint256"
        }
      ],
      "name": "shipmentTracking",
      "outputs": [],
      "stateMutability": "nonpayable",
      "type": "function"
    },
    {
      "inputs": [
        {
          "internalType": "string",
          "name": "_name",
          "type": "string"
        },
        {
          "internalType": "string",
          "name": "_custodian",
          "type": "string"
        },
        {
          "internalType": "uint256",
          "name": "_arrival",
          "type": "uint256"
        }
      ],
      "name": "arrive",
      "outputs": [
        {
          "internalType": "bool",
          "name": "success",
          "type": "bool"
        }
      ],
      "stateMutability": "nonpayable",
      "type": "function"
    },
    {
      "inputs": [
        {
          "internalType": "uint256",
          "name": "_index",
          "type": "uint256"
        },
        {
          "internalType": "uint256",
          "name": "_departure",
          "type": "uint256"
        }
      ],
      "name": "depart",
      "outputs": [
        {
          "internalType": "bool",
          "name": "success",
          "type": "bool"
        }
      ],
      "stateMutability": "nonpayable",
      "type": "function"
    },
    {
      "inputs": [
        {
          "internalType": "string",
          "name": "_name",
          "type": "string"
        },
        {
          "internalType": "string",
          "name": "_custodian",
          "type": "string"
        },
        {
          "internalType": "uint256",
          "name": "_arrival",
          "type": "uint256"
        }
      ],
      "name": "deliver",
      "outputs": [
        {
          "internalType": "bool",
          "name": "success",
          "type": "bool"
        }
      ],
      "stateMutability": "nonpayable",
      "type": "function"
    },
    {
      "inputs": [],
      "name": "getDetails",
      "outputs": [
        {
          "internalType": "uint256",
          "name": "",
          "type": "uint256"
        },
        {
          "internalType": "string",
          "name": "",
          "type": "string"
        },
        {
          "internalType": "string",
          "name": "",
          "type": "string"
        },
        {
          "internalType": "string",
          "name": "",
          "type": "string"
        },
        {
          "internalType": "string",
          "name": "",
          "type": "string"
        },
        {
          "internalType": "uint256",
          "name": "",
          "type": "uint256"
        },
        {
          "internalType": "uint256",
          "name": "",
          "type": "uint256"
        }
      ],
      "stateMutability": "view",
      "type": "function",
      "constant": true
    },
    {
      "inputs": [],
      "name": "getLocations",
      "outputs": [
        {
          "components": [
            {
              "internalType": "string",
              "name": "name",
              "type": "string"
            },
            {
              "internalType": "string",
              "name": "custodian",
              "type": "string"
            },
            {
              "internalType": "uint256",
              "name": "arrival",
              "type": "uint256"
            },
            {
              "internalType": "uint256",
              "name": "departure",
              "type": "uint256"
            }
          ],
          "internalType": "struct Freight_Forwarder.Location[]",
          "name": "",
          "type": "tuple[]"
        }
      ],
      "stateMutability": "view",
      "type": "function",
      "constant": true
    }
  ],
  "bytecode": "0x608060405234801561001057600080fd5b50611755806100206000396000f3fe608060405234801561001057600080fd5b50600436106100cf5760003560e01c8063901d64e01161008c578063d5ce338911610066578063d5ce338914610204578063d611a19e14610222578063e596f0bb14610240578063fbbf93a014610270576100cf565b8063901d64e014610198578063ab63616f146101b6578063b4be53ce146101d4576100cf565b806306022be1146100d45780630785581c14610104578063131519811461012257806345fe5a8314610140578063847597401461015e5780638b8723db1461017a575b600080fd5b6100ee60048036038101906100e99190610f78565b610294565b6040516100fb919061101e565b60405180910390f35b61010c610397565b60405161011991906110c1565b60405180910390f35b61012a610425565b60405161013791906110c1565b60405180910390f35b6101486104b3565b60405161015591906110f2565b60405180910390f35b6101786004803603810190610173919061110d565b6104b9565b005b61018261061f565b60405161018f91906110c1565b60405180910390f35b6101a06106ad565b6040516101ad91906110f2565b60405180910390f35b6101be6106b3565b6040516101cb91906113c0565b60405180910390f35b6101ee60048036038101906101e991906113e2565b61084a565b6040516101fb919061101e565b60405180910390f35b61020c610910565b60405161021991906110c1565b60405180910390f35b61022a61099e565b60405161023791906110f2565b60405180910390f35b61025a60048036038101906102559190610f78565b6109a4565b604051610267919061101e565b60405180910390f35b610278610ae2565b60405161028b9796959493929190611422565b60405180910390f35b60008082036102a1574291505b6007604051806080016040528086815260200185815260200184815260200160008152509080600181540180825580915050600190039060005260206000209060040201600090919091909150600082015181600001908051906020019061030a929190610d45565b506020820151816001019080519060200190610327929190610d45565b50604082015181600201556060820151816003015550507f34cf8d1331d50699163acc54b5e6e90196da7232e11a427a7d30ec8ab885e4da848484600160078054905061037491906114dc565b6040516103849493929190611510565b60405180910390a1600190509392505050565b600380546103a490611592565b80601f01602080910402602001604051908101604052809291908181526020018280546103d090611592565b801561041d5780601f106103f25761010080835404028352916020019161041d565b820191906000526020600020905b81548152906001019060200180831161040057829003601f168201915b505050505081565b6002805461043290611592565b80601f016020809104026020016040519081016040528092919081815260200182805461045e90611592565b80156104ab5780601f10610480576101008083540402835291602001916104ab565b820191906000526020600020905b81548152906001019060200180831161048e57829003601f168201915b505050505081565b60065481565b8660008190555085600190805190602001906104d6929190610d45565b5084600290805190602001906104ed929190610d45565b508360039080519060200190610504929190610d45565b50826004908051906020019061051b929190610d45565b5080600581905550600060068190555060076040518060800160405280868152602001848152602001600081526020014281525090806001815401808255809150506001900390600052602060002090600402016000909190919091506000820151816000019080519060200190610594929190610d45565b5060208201518160010190805190602001906105b1929190610d45565b50604082015181600201556060820151816003015550507f9fbaa98a1338176a6f634b1bec21b408cc4e062bd58a30feb045f76b09c3922384834260016007805490506105fe91906114dc565b60405161060e9493929190611510565b60405180910390a150505050505050565b6004805461062c90611592565b80601f016020809104026020016040519081016040528092919081815260200182805461065890611592565b80156106a55780601f1061067a576101008083540402835291602001916106a5565b820191906000526020600020905b81548152906001019060200180831161068857829003601f168201915b505050505081565b60055481565b60606007805480602002602001604051908101604052809291908181526020016000905b82821015610841578382906000526020600020906004020160405180608001604052908160008201805461070a90611592565b80601f016020809104026020016040519081016040528092919081815260200182805461073690611592565b80156107835780601f1061075857610100808354040283529160200191610783565b820191906000526020600020905b81548152906001019060200180831161076657829003601f168201915b5050505050815260200160018201805461079c90611592565b80601f01602080910402602001604051908101604052809291908181526020018280546107c890611592565b80156108155780601f106107ea57610100808354040283529160200191610815565b820191906000526020600020905b8154815290600101906020018083116107f857829003601f168201915b5050505050815260200160028201548152602001600382015481525050815260200190600101906106d7565b50505050905090565b6000808203610857574291505b816007848154811061086c5761086b6115c3565b5b9060005260206000209060040201600301819055507f9fbaa98a1338176a6f634b1bec21b408cc4e062bd58a30feb045f76b09c39223600784815481106108b6576108b56115c3565b5b9060005260206000209060040201600001600785815481106108db576108da6115c3565b5b906000526020600020906004020160010184866040516108fe9493929190611687565b60405180910390a16001905092915050565b6001805461091d90611592565b80601f016020809104026020016040519081016040528092919081815260200182805461094990611592565b80156109965780601f1061096b57610100808354040283529160200191610996565b820191906000526020600020905b81548152906001019060200180831161097957829003601f168201915b505050505081565b60005481565b60008082036109b1574291505b60076040518060800160405280868152602001858152602001848152602001600081525090806001815401808255809150506001900390600052602060002090600402016000909190919091506000820151816000019080519060200190610a1a929190610d45565b506020820151816001019080519060200190610a37929190610d45565b50604082015181600201556060820151816003015550507f34cf8d1331d50699163acc54b5e6e90196da7232e11a427a7d30ec8ab885e4da8484846001600780549050610a8491906114dc565b604051610a949493929190611510565b60405180910390a17f204054d0f50c3e0615b900c9be1523f3be0006c8aa0965c3c32d3dc6168b75f4848484604051610acf939291906116da565b60405180910390a1600190509392505050565b60006060806060806000806000546001600260036004600554600654858054610b0a90611592565b80601f0160208091040260200160405190810160405280929190818152602001828054610b3690611592565b8015610b835780601f10610b5857610100808354040283529160200191610b83565b820191906000526020600020905b815481529060010190602001808311610b6657829003601f168201915b50505050509550848054610b9690611592565b80601f0160208091040260200160405190810160405280929190818152602001828054610bc290611592565b8015610c0f5780601f10610be457610100808354040283529160200191610c0f565b820191906000526020600020905b815481529060010190602001808311610bf257829003601f168201915b50505050509450838054610c2290611592565b80601f0160208091040260200160405190810160405280929190818152602001828054610c4e90611592565b8015610c9b5780601f10610c7057610100808354040283529160200191610c9b565b820191906000526020600020905b815481529060010190602001808311610c7e57829003601f168201915b50505050509350828054610cae90611592565b80601f0160208091040260200160405190810160405280929190818152602001828054610cda90611592565b8015610d275780601f10610cfc57610100808354040283529160200191610d27565b820191906000526020600020905b815481529060010190602001808311610d0a57829003601f168201915b50505050509250965096509650965096509650965090919293949596565b828054610d5190611592565b90600052602060002090601f016020900481019282610d735760008555610dba565b82601f10610d8c57805160ff1916838001178555610dba565b82800160010185558215610dba579182015b82811115610db9578251825591602001919060010190610d9e565b5b509050610dc79190610dcb565b5090565b5b80821115610de4576000816000905550600101610dcc565b5090565b6000604051905090565b600080fd5b600080fd5b600080fd5b600080fd5b6000601f19601f8301169050919050565b7f4e487b7100000000000000000000000000000000000000000000000000000000600052604160045260246000fd5b610e4f82610e06565b810181811067ffffffffffffffff82111715610e6e57610e6d610e17565b5b80604052505050565b6000610e81610de8565b9050610e8d8282610e46565b919050565b600067ffffffffffffffff821115610ead57610eac610e17565b5b610eb682610e06565b9050602081019050919050565b82818337600083830152505050565b6000610ee5610ee084610e92565b610e77565b905082815260208101848484011115610f0157610f00610e01565b5b610f0c848285610ec3565b509392505050565b600082601f830112610f2957610f28610dfc565b5b8135610f39848260208601610ed2565b91505092915050565b6000819050919050565b610f5581610f42565b8114610f6057600080fd5b50565b600081359050610f7281610f4c565b92915050565b600080600060608486031215610f9157610f90610df2565b5b600084013567ffffffffffffffff811115610faf57610fae610df7565b5b610fbb86828701610f14565b935050602084013567ffffffffffffffff811115610fdc57610fdb610df7565b5b610fe886828701610f14565b9250506040610ff986828701610f63565b9150509250925092565b60008115159050919050565b61101881611003565b82525050565b6000602082019050611033600083018461100f565b92915050565b600081519050919050565b600082825260208201905092915050565b60005b83811015611073578082015181840152602081019050611058565b83811115611082576000848401525b50505050565b600061109382611039565b61109d8185611044565b93506110ad818560208601611055565b6110b681610e06565b840191505092915050565b600060208201905081810360008301526110db8184611088565b905092915050565b6110ec81610f42565b82525050565b600060208201905061110760008301846110e3565b92915050565b600080600080600080600060e0888a03121561112c5761112b610df2565b5b600061113a8a828b01610f63565b975050602088013567ffffffffffffffff81111561115b5761115a610df7565b5b6111678a828b01610f14565b965050604088013567ffffffffffffffff81111561118857611187610df7565b5b6111948a828b01610f14565b955050606088013567ffffffffffffffff8111156111b5576111b4610df7565b5b6111c18a828b01610f14565b945050608088013567ffffffffffffffff8111156111e2576111e1610df7565b5b6111ee8a828b01610f14565b93505060a088013567ffffffffffffffff81111561120f5761120e610df7565b5b61121b8a828b01610f14565b92505060c061122c8a828b01610f63565b91505092959891949750929550565b600081519050919050565b600082825260208201905092915050565b6000819050602082019050919050565b600082825260208201905092915050565b600061128382611039565b61128d8185611267565b935061129d818560208601611055565b6112a681610e06565b840191505092915050565b6112ba81610f42565b82525050565b600060808301600083015184820360008601526112dd8282611278565b915050602083015184820360208601526112f78282611278565b915050604083015161130c60408601826112b1565b50606083015161131f60608601826112b1565b508091505092915050565b600061133683836112c0565b905092915050565b6000602082019050919050565b60006113568261123b565b6113608185611246565b93508360208202850161137285611257565b8060005b858110156113ae578484038952815161138f858261132a565b945061139a8361133e565b925060208a01995050600181019050611376565b50829750879550505050505092915050565b600060208201905081810360008301526113da818461134b565b905092915050565b600080604083850312156113f9576113f8610df2565b5b600061140785828601610f63565b925050602061141885828601610f63565b9150509250929050565b600060e082019050611437600083018a6110e3565b81810360208301526114498189611088565b9050818103604083015261145d8188611088565b905081810360608301526114718187611088565b905081810360808301526114858186611088565b905061149460a08301856110e3565b6114a160c08301846110e3565b98975050505050505050565b7f4e487b7100000000000000000000000000000000000000000000000000000000600052601160045260246000fd5b60006114e782610f42565b91506114f283610f42565b925082821015611505576115046114ad565b5b828203905092915050565b6000608082019050818103600083015261152a8187611088565b9050818103602083015261153e8186611088565b905061154d60408301856110e3565b61155a60608301846110e3565b95945050505050565b7f4e487b7100000000000000000000000000000000000000000000000000000000600052602260045260246000fd5b600060028204905060018216806115aa57607f821691505b6020821081036115bd576115bc611563565b5b50919050565b7f4e487b7100000000000000000000000000000000000000000000000000000000600052603260045260246000fd5b60008190508160005260206000209050919050565b6000815461161481611592565b61161e8186611044565b94506001821660008114611639576001811461164b5761167e565b60ff198316865260208601935061167e565b611654856115f2565b60005b8381101561167657815481890152600182019150602081019050611657565b808801955050505b50505092915050565b600060808201905081810360008301526116a18187611607565b905081810360208301526116b58186611607565b90506116c460408301856110e3565b6116d160608301846110e3565b95945050505050565b600060608201905081810360008301526116f48186611088565b905081810360208301526117088185611088565b905061171760408301846110e3565b94935050505056fea264697066735822122068b758afd69d941745cfd7d4b319064e7083aa4a5862434c01f9a3a33d6648b864736f6c634300080d0033",
  "immutableReferences": {},
  "source": "// SPDX-License-Identifier: MIT\r\npragma solidity ^0.8.13;\r\n\r\nimport \"./Seller.sol\";\r\n\r\ncontract Freight_Forwarder\r\n{\r\n    struct Location {\r\n        string name;\r\n        string custodian;\r\n        uint arrival;\r\n        uint departure;\r\n    }\r\n\r\n     event Departed(\r\n        string location,\r\n        string custodian,\r\n        uint time,\r\n        uint index\r\n    );\r\n\r\n    event Arrived(\r\n        string location,\r\n        string custodian,\r\n        uint time,\r\n        uint index\r\n    );\r\n\r\n    event Delivered(\r\n        string location,\r\n        string custodian,\r\n        uint time\r\n    );\r\n\r\n    uint public packageId;\r\n    string public from;\r\n    string public to;\r\n    string public originName;\r\n    string public destinationName;\r\n    uint public departureTime;\r\n    uint public deliveryTime;\r\n\r\n    Location[] locations;\r\n\r\n    function shipmentTracking(uint _packageId,string memory _from,string memory _to,string memory _originName,string  memory _destinationName,string memory _custodian,uint _departureTime) public {\r\n        packageId = _packageId;\r\n        from = _from;\r\n        to = _to;\r\n        originName = _originName;\r\n        destinationName = _destinationName;\r\n        departureTime = _departureTime;\r\n        deliveryTime = 0;\r\n\r\n        locations.push(Location({\r\n            name: _originName,\r\n            custodian: _custodian,\r\n            arrival: 0,\r\n            departure: block.timestamp\r\n        }));\r\n\r\n        emit Departed(_originName, _custodian, block.timestamp, locations.length - 1);\r\n    }\r\n\r\n    function arrive(string memory _name,string memory _custodian,uint _arrival ) public returns (bool success)\r\n    {\r\n        if (_arrival == 0) {\r\n            _arrival = block.timestamp;\r\n        }\r\n\r\n        locations.push(Location({\r\n            name: _name,\r\n            custodian: _custodian,\r\n            arrival: _arrival,\r\n            departure: 0\r\n        }));\r\n\r\n        emit Arrived(_name, _custodian, _arrival, locations.length - 1);\r\n        return true;\r\n    }\r\n\r\n    function depart(uint _index,uint _departure)public returns (bool success)\r\n    {\r\n        if (_departure == 0) {\r\n            _departure = block.timestamp;\r\n        }\r\n\r\n        locations[_index].departure = _departure;\r\n\r\n       emit  Departed(\r\n            locations[_index].name,\r\n            locations[_index].custodian,\r\n            _departure,\r\n            _index\r\n        );\r\n        return true;\r\n    }\r\n\r\n    function deliver(string memory _name,string memory _custodian,uint _arrival)public returns (bool success)\r\n    {\r\n        if (_arrival == 0) {\r\n            _arrival = block.timestamp;\r\n        }\r\n\r\n        locations.push(Location({\r\n            name: _name,\r\n            custodian: _custodian,\r\n            arrival: _arrival,\r\n            departure: 0\r\n        }));\r\n\r\n       emit Arrived(_name, _custodian, _arrival, locations.length - 1);\r\n       emit Delivered(_name, _custodian, _arrival);\r\n        return true;\r\n    }\r\n\r\n    function getDetails() view public returns (uint, string memory, string memory, string memory, string memory, uint, uint)\r\n    {\r\n        return (\r\n            packageId,\r\n            from,\r\n            to,\r\n            originName,\r\n            destinationName,\r\n            departureTime,\r\n            deliveryTime\r\n        );\r\n    }\r\n\r\n\r\n    function getLocations() view public returns (Location[] memory)\r\n    {\r\n        return locations;\r\n    }\r\n\r\n}",
  "sourcePath": "C:\\Users\\krish\\OneDrive\\desktop\\shipment_tracking_project\\contracts\\Freight_Forwarder.sol",
  "compiler": {
    "name": "solc",
    "version": "0.8.13+commit.abaa5c0e.Emscripten.clang"
  },
  "schemaVersion": "3.4.9",
  "updatedAt": "2022-10-23T01:55:11.080Z",
  "networkType": "ethereum",
  "devdoc": {
    "kind": "dev",
    "methods": {},
    "version": 1
  },
  "userdoc": {
    "kind": "user",
    "methods": {},
    "version": 1
  }
}