{
  "contractName": "Seller",
  "abi": [
    {
      "inputs": [],
      "stateMutability": "payable",
      "type": "constructor",
      "payable": true
    },
    {
      "inputs": [],
      "name": "seller_address",
      "outputs": [
        {
          "internalType": "address",
          "name": "",
          "type": "address"
        }
      ],
      "stateMutability": "view",
      "type": "function",
      "constant": true
    },
    {
      "inputs": [
        {
          "internalType": "uint256",
          "name": "",
          "type": "uint256"
        }
      ],
      "name": "sellers",
      "outputs": [
        {
          "internalType": "uint256",
          "name": "id",
          "type": "uint256"
        },
        {
          "internalType": "string",
          "name": "name",
          "type": "string"
        },
        {
          "internalType": "string",
          "name": "email",
          "type": "string"
        },
        {
          "internalType": "string",
          "name": "addr",
          "type": "string"
        }
      ],
      "stateMutability": "view",
      "type": "function",
      "constant": true
    },
    {
      "inputs": [
        {
          "internalType": "string",
          "name": "_name",
          "type": "string"
        },
        {
          "internalType": "string",
          "name": "_email",
          "type": "string"
        },
        {
          "internalType": "string",
          "name": "_delivery_addr",
          "type": "string"
        }
      ],
      "name": "addSeller",
      "outputs": [],
      "stateMutability": "nonpayable",
      "type": "function"
    },
    {
      "inputs": [
        {
          "internalType": "uint256",
          "name": "_quantity",
          "type": "uint256"
        }
      ],
      "name": "sendQuotation",
      "outputs": [
        {
          "internalType": "uint256",
          "name": "",
          "type": "uint256"
        }
      ],
      "stateMutability": "pure",
      "type": "function",
      "constant": true
    }
  ],
  "bytecode": "0x60806040526000600155336000806101000a81548173ffffffffffffffffffffffffffffffffffffffff021916908373ffffffffffffffffffffffffffffffffffffffff16021790555061098a806100586000396000f3fe608060405234801561001057600080fd5b506004361061004c5760003560e01c80636c498efa1461005157806395ee3ce01461006d578063cee26ed51461008b578063d5bd8633146100be575b600080fd5b61006b600480360381019061006691906105b1565b6100ee565b005b6100756101a7565b6040516100829190610699565b60405180910390f35b6100a560048036038101906100a091906106ea565b6101cb565b6040516100b594939291906107ae565b60405180910390f35b6100d860048036038101906100d391906106ea565b610393565b6040516100e59190610808565b60405180910390f35b6001600081548092919061010190610852565b919050555060405180608001604052806001548152602001848152602001838152602001828152506002600060015481526020019081526020016000206000820151816000015560208201518160010190805190602001906101649291906103b4565b5060408201518160020190805190602001906101819291906103b4565b50606082015181600301908051906020019061019e9291906103b4565b50905050505050565b60008054906101000a900473ffffffffffffffffffffffffffffffffffffffff1681565b60026020528060005260406000206000915090508060000154908060010180546101f4906108c9565b80601f0160208091040260200160405190810160405280929190818152602001828054610220906108c9565b801561026d5780601f106102425761010080835404028352916020019161026d565b820191906000526020600020905b81548152906001019060200180831161025057829003601f168201915b505050505090806002018054610282906108c9565b80601f01602080910402602001604051908101604052809291908181526020018280546102ae906108c9565b80156102fb5780601f106102d0576101008083540402835291602001916102fb565b820191906000526020600020905b8154815290600101906020018083116102de57829003601f168201915b505050505090806003018054610310906108c9565b80601f016020809104026020016040519081016040528092919081815260200182805461033c906108c9565b80156103895780601f1061035e57610100808354040283529160200191610389565b820191906000526020600020905b81548152906001019060200180831161036c57829003601f168201915b5050505050905084565b600080600a9050600083826103a891906108fa565b90508092505050919050565b8280546103c0906108c9565b90600052602060002090601f0160209004810192826103e25760008555610429565b82601f106103fb57805160ff1916838001178555610429565b82800160010185558215610429579182015b8281111561042857825182559160200191906001019061040d565b5b509050610436919061043a565b5090565b5b8082111561045357600081600090555060010161043b565b5090565b6000604051905090565b600080fd5b600080fd5b600080fd5b600080fd5b6000601f19601f8301169050919050565b7f4e487b7100000000000000000000000000000000000000000000000000000000600052604160045260246000fd5b6104be82610475565b810181811067ffffffffffffffff821117156104dd576104dc610486565b5b80604052505050565b60006104f0610457565b90506104fc82826104b5565b919050565b600067ffffffffffffffff82111561051c5761051b610486565b5b61052582610475565b9050602081019050919050565b82818337600083830152505050565b600061055461054f84610501565b6104e6565b9050828152602081018484840111156105705761056f610470565b5b61057b848285610532565b509392505050565b600082601f8301126105985761059761046b565b5b81356105a8848260208601610541565b91505092915050565b6000806000606084860312156105ca576105c9610461565b5b600084013567ffffffffffffffff8111156105e8576105e7610466565b5b6105f486828701610583565b935050602084013567ffffffffffffffff81111561061557610614610466565b5b61062186828701610583565b925050604084013567ffffffffffffffff81111561064257610641610466565b5b61064e86828701610583565b9150509250925092565b600073ffffffffffffffffffffffffffffffffffffffff82169050919050565b600061068382610658565b9050919050565b61069381610678565b82525050565b60006020820190506106ae600083018461068a565b92915050565b6000819050919050565b6106c7816106b4565b81146106d257600080fd5b50565b6000813590506106e4816106be565b92915050565b600060208284031215610700576106ff610461565b5b600061070e848285016106d5565b91505092915050565b610720816106b4565b82525050565b600081519050919050565b600082825260208201905092915050565b60005b83811015610760578082015181840152602081019050610745565b8381111561076f576000848401525b50505050565b600061078082610726565b61078a8185610731565b935061079a818560208601610742565b6107a381610475565b840191505092915050565b60006080820190506107c36000830187610717565b81810360208301526107d58186610775565b905081810360408301526107e98185610775565b905081810360608301526107fd8184610775565b905095945050505050565b600060208201905061081d6000830184610717565b92915050565b7f4e487b7100000000000000000000000000000000000000000000000000000000600052601160045260246000fd5b600061085d826106b4565b91507fffffffffffffffffffffffffffffffffffffffffffffffffffffffffffffffff820361088f5761088e610823565b5b600182019050919050565b7f4e487b7100000000000000000000000000000000000000000000000000000000600052602260045260246000fd5b600060028204905060018216806108e157607f821691505b6020821081036108f4576108f361089a565b5b50919050565b6000610905826106b4565b9150610910836106b4565b9250817fffffffffffffffffffffffffffffffffffffffffffffffffffffffffffffffff048311821515161561094957610948610823565b5b82820290509291505056fea2646970667358221220cfa09b139abc7438a2264385562aada9f7e567ea62bc076c79718b04d86f5bab64736f6c634300080d0033",
  "immutableReferences": {},
  "source": "// SPDX-License-Identifier: MIT\r\npragma solidity ^0.8.13;\r\n\r\nimport \"./Buyer.sol\";\r\n\r\ncontract Seller \r\n{   \r\n    address public seller_address;\r\n\r\n     constructor() payable\r\n    {\r\n        seller_address=payable (msg.sender);\r\n    }\r\n\r\n    struct seller\r\n    {\r\n        uint id;\r\n        string name;\r\n        string email;\r\n        string addr;\r\n    }\r\n\r\n    uint seller_count=0;\r\n    mapping (uint=> seller)public sellers;\r\n\r\n    function addSeller(string memory _name,string memory _email,string memory _delivery_addr) public  {\r\n        seller_count++;\r\n        sellers[seller_count]=seller(seller_count,_name,_email,_delivery_addr);\r\n    }  \r\n\r\n    function sendQuotation(uint _quantity) public pure returns (uint)\r\n    {   \r\n        uint price=10; \r\n        uint total_price = price*_quantity;\r\n        return total_price;\r\n    }\r\n\r\n}",
  "sourcePath": "C:\\Users\\krish\\OneDrive\\desktop\\shipment_tracking_project\\contracts\\Seller.sol",
  "compiler": {
    "name": "solc",
    "version": "0.8.13+commit.abaa5c0e.Emscripten.clang"
  },
  "schemaVersion": "3.4.9",
  "updatedAt": "2022-10-23T01:55:10.084Z",
  "networkType": "ethereum",
  "devdoc": {
    "kind": "dev",
    "methods": {},
    "version": 1
  },
  "userdoc": {
    "kind": "user",
    "methods": {},
    "version": 1
  }
}